100000001DAF607 SIMPLESNACION20240601074910011361204241425         2024060100120240604                                                                                                                                                                                                                                                                                                                                                                                                                              
2000000022024053120240531            00000000000000000000000000000000000001292734300018500000000000M2016090000000000000001900000000000000002000000000000000020000000000     00200708010000000000000000000000000000000000535870B8A9CA2EFFADF2A       0010276                                                                                                                                                                                                            98816307182414590354162 0292                 
2000000072024053120240328            00000000000000000000000000000000000002136586200019800000000000M2016040000000000004612700000000000004613000000000000059920000000000     0020070801000000000000000000000000000000000234017F3B21FFAA00A2AC8       0011489                                                                                                                                                                                                            98816307182413795866280 0292                 
2000000092024053120240531            00000000000000000000000000000000000003708916900017000000000000M2020060000000000000028500000000000000057000000000000000960000000000     00200708010000000000000000000000000000000000050970462409808800043       0011903                                                                                                                                                                                                            98816307182415252507588 0252                 
2000000112024053120240531            00000000000000000000000000000000000002630273600010800000000000M2020010000000000000029000000000000000058000000000000001010000000000     00200708010000000000000000000000000000000000051180462507967366647       0011903                                                                                                                                                                                                            98816307182415003862090 0252                 
2000000132024053120240328            00000000000000000000000000000000000003053172800010000000000000M2020110000000000000029900000000000000060000000000000000980000000000     00200708010000000000000000000000000000000000053250462562257014120       0011903                                                                                                                                                                                                            98816307182413140440701 0252                 
2000000152024053120240531            00000000000000000000000000000000000001475378600012200000000000M2013060000000000000032500000000000000065000000000000003150000000000     00200708010000000000000000000000000000000000056290462260472024187       0011903                                                                                                                                                                                                            98816307182413499304486 0252                 
2000000172024053120240531            00000000000000000000000000000000000001352466300015700000000000M2020010000000000000033000000000000000066000000000000001150000000000     00200708010000000000000000000000000000000000057370462314320514150       0011903                                                                                                                                                                                                            98816307182414955866770 0252                 
2000000202024053120240328            00000000000000000000000000000000000002750285200013300000000000M2018120000000000000036100000000000000071000000000000001480000000000     00200708010000000000000000000000000000000000061230462559144834447       0011903                                                                                                                                                                                                            98816307182413140503142 0252                 
2000000212024053120240531            00000000000000000000000000000000000001364383100012300000000000M2018050000000000000051300000000000000011000000000000000230000000000     00200708010000000000000000000000000000000000061600461580462256050       0011903                                                                                                                                                                                                            98816307182413517497171 0472                 
2000000222024053120240430            00000000000000000000000000000000000003309198200012300000000000M2020110000000000000039600000000000000079000000000000001300000000000     00200708010000000000000000000000000000000000069180462570638109770       0011903                                                                                                                                                                                                            98816307182415267557241 0252                 
2000000242024053120240531            00000000000000000000000000000000000001652550400016500000000000M2017090000000000000041100000000000000082000000000000002000000000000     00200708010000000000000000000000000000000000073510461297943813150       0011903                                                                                                                                                                                                            98816307182413797726966 0252                 
2000000252024053120240131            00000000000000000000000000000000000003178618800017900000000000M2019030000000000000042600000000000000084000000000000001680000000000     00200708010000000000000000000000000000000000074400462410918430471       0011903                                                                                                                                                                                                            98816307182414836863203 0252                 
2000000262024053120240328            00000000000000000000000000000000000003178618800017900000000000M2019040000000000000042700000000000000086000000000000001660000000000     00200708010000000000000000000000000000000000074400462414138930355       0011903                                                                                                                                                                                                            98816307182414836863912 0252                 
2000000272024053120240229            00000000000000000000000000000000000003178618800017900000000000M2019030000000000000042500000000000000085000000000000001670000000000     00200708010000000000000000000000000000000000074400462484339942369       0011903                                                                                                                                                                                                            98816307182414836863653 0252                 
2000001572024053120240531            00000000000000000000000000000000000003005991700012200000000000M2020100000000000000611100000000000001222000000000000020190000000000     00200708010000000000000000000000000000000000550100462437105524571       0011903                                                                                                                                                                                                            98816307182413796960159 0132                 
2000001612024053120240430            00000000000000000000000000000000000001865091000018500000000000M2015070000000000000862700000000000001725000000000000065200000000000     00200708010000000000000000000000000000000000802940462648019441719       0011903                                                                                                                                                                                                            98816307182413484827127 0132                 
2000001852024053120240531            00000000000000000000000000000000000001284921600010500000000000M2020010000000000000002400000000000000005000000000000000080000000000     0020070801000000000000000000000000000000000092518FBEE05706E423E6E       0013164                                                                                                                                                                                                            98816307182413150682236 0132                 
2000001862024053120240531            00000000000000000000000000000000000000818779400015600000000000M2020120000000000000016600000000000000033000000000000000540000000000     0020070801000000000000000000000000000000000133951A71ECEAA7F28A792       0013164                                                                                                                                                                                                            98816307182413807636972 0132                 
2000001902024053120240531            00000000000000000000000000000000000003208292800015900000000000M2019040000000000000052700000000000000106000000000000002060000000000     00200708010000000000000000000000000000000000092022BDD32F998C2FEBD       0013164                                                                                                                                                                                                            98816307182414831674194 0252                 
2000002042024053120230831            00000000000000000000000000000000000000839090500012700000000000M2019120000000000000011900000000000000024000000000000000420000000000     00200708010000000000000000000000000000000000402502CC7D8693EA97788       0016846                                                                                                                                                                                                            98816307182413133617553 0132                 
99999999900020600000000001594255                                                                                                                                                                                                                                                                                                                                                                                                                                                                                    
